{
  "_format": "hh-sol-artifact-1",
  "contractName": "BlockalizerController",
  "sourceName": "contracts/BlockalizerV3.sol",
  "abi": [
    {
      "inputs": [],
      "stateMutability": "nonpayable",
      "type": "constructor"
    },
    {
      "anonymous": false,
      "inputs": [
        {
          "indexed": false,
          "internalType": "address",
          "name": "previousAdmin",
          "type": "address"
        },
        {
          "indexed": false,
          "internalType": "address",
          "name": "newAdmin",
          "type": "address"
        }
      ],
      "name": "AdminChanged",
      "type": "event"
    },
    {
      "anonymous": false,
      "inputs": [
        {
          "indexed": true,
          "internalType": "address",
          "name": "beacon",
          "type": "address"
        }
      ],
      "name": "BeaconUpgraded",
      "type": "event"
    },
    {
      "anonymous": false,
      "inputs": [
        {
          "indexed": true,
          "internalType": "uint256",
          "name": "_id",
          "type": "uint256"
        },
        {
          "indexed": true,
          "internalType": "address",
          "name": "_address",
          "type": "address"
        }
      ],
      "name": "Collection",
      "type": "event"
    },
    {
      "anonymous": false,
      "inputs": [
        {
          "indexed": true,
          "internalType": "uint256",
          "name": "_id",
          "type": "uint256"
        },
        {
          "indexed": true,
          "internalType": "address",
          "name": "_address",
          "type": "address"
        }
      ],
      "name": "Generation",
      "type": "event"
    },
    {
      "anonymous": false,
      "inputs": [
        {
          "indexed": false,
          "internalType": "uint8",
          "name": "version",
          "type": "uint8"
        }
      ],
      "name": "Initialized",
      "type": "event"
    },
    {
      "anonymous": false,
      "inputs": [
        {
          "indexed": true,
          "internalType": "bytes32",
          "name": "role",
          "type": "bytes32"
        },
        {
          "indexed": true,
          "internalType": "bytes32",
          "name": "previousAdminRole",
          "type": "bytes32"
        },
        {
          "indexed": true,
          "internalType": "bytes32",
          "name": "newAdminRole",
          "type": "bytes32"
        }
      ],
      "name": "RoleAdminChanged",
      "type": "event"
    },
    {
      "anonymous": false,
      "inputs": [
        {
          "indexed": true,
          "internalType": "bytes32",
          "name": "role",
          "type": "bytes32"
        },
        {
          "indexed": true,
          "internalType": "address",
          "name": "account",
          "type": "address"
        },
        {
          "indexed": true,
          "internalType": "address",
          "name": "sender",
          "type": "address"
        }
      ],
      "name": "RoleGranted",
      "type": "event"
    },
    {
      "anonymous": false,
      "inputs": [
        {
          "indexed": true,
          "internalType": "bytes32",
          "name": "role",
          "type": "bytes32"
        },
        {
          "indexed": true,
          "internalType": "address",
          "name": "account",
          "type": "address"
        },
        {
          "indexed": true,
          "internalType": "address",
          "name": "sender",
          "type": "address"
        }
      ],
      "name": "RoleRevoked",
      "type": "event"
    },
    {
      "anonymous": false,
      "inputs": [
        {
          "indexed": true,
          "internalType": "address",
          "name": "implementation",
          "type": "address"
        }
      ],
      "name": "Upgraded",
      "type": "event"
    },
    {
      "inputs": [],
      "name": "DEFAULT_ADMIN_ROLE",
      "outputs": [
        {
          "internalType": "bytes32",
          "name": "",
          "type": "bytes32"
        }
      ],
      "stateMutability": "view",
      "type": "function"
    },
    {
      "inputs": [],
      "name": "UPGRADER_ROLE",
      "outputs": [
        {
          "internalType": "bytes32",
          "name": "",
          "type": "bytes32"
        }
      ],
      "stateMutability": "view",
      "type": "function"
    },
    {
      "inputs": [
        {
          "internalType": "address",
          "name": "user",
          "type": "address"
        }
      ],
      "name": "addToWhitelist",
      "outputs": [],
      "stateMutability": "nonpayable",
      "type": "function"
    },
    {
      "inputs": [
        {
          "internalType": "uint256",
          "name": "_collectionId",
          "type": "uint256"
        }
      ],
      "name": "getCollection",
      "outputs": [
        {
          "internalType": "address",
          "name": "",
          "type": "address"
        }
      ],
      "stateMutability": "view",
      "type": "function"
    },
    {
      "inputs": [],
      "name": "getGeneration",
      "outputs": [
        {
          "internalType": "address",
          "name": "",
          "type": "address"
        }
      ],
      "stateMutability": "view",
      "type": "function"
    },
    {
      "inputs": [],
      "name": "getGenerationCount",
      "outputs": [
        {
          "internalType": "uint256",
          "name": "",
          "type": "uint256"
        }
      ],
      "stateMutability": "view",
      "type": "function"
    },
    {
      "inputs": [
        {
          "internalType": "bytes32",
          "name": "role",
          "type": "bytes32"
        }
      ],
      "name": "getRoleAdmin",
      "outputs": [
        {
          "internalType": "bytes32",
          "name": "",
          "type": "bytes32"
        }
      ],
      "stateMutability": "view",
      "type": "function"
    },
    {
      "inputs": [
        {
          "internalType": "bytes32",
          "name": "role",
          "type": "bytes32"
        },
        {
          "internalType": "address",
          "name": "account",
          "type": "address"
        }
      ],
      "name": "grantRole",
      "outputs": [],
      "stateMutability": "nonpayable",
      "type": "function"
    },
    {
      "inputs": [
        {
          "internalType": "bytes32",
          "name": "role",
          "type": "bytes32"
        },
        {
          "internalType": "address",
          "name": "account",
          "type": "address"
        }
      ],
      "name": "hasRole",
      "outputs": [
        {
          "internalType": "bool",
          "name": "",
          "type": "bool"
        }
      ],
      "stateMutability": "view",
      "type": "function"
    },
    {
      "inputs": [
        {
          "internalType": "uint256",
          "name": "_mintPrice",
          "type": "uint256"
        },
        {
          "internalType": "uint256",
          "name": "_maxSupply",
          "type": "uint256"
        },
        {
          "internalType": "uint256",
          "name": "_expiryTime",
          "type": "uint256"
        },
        {
          "internalType": "uint256",
          "name": "_startTime",
          "type": "uint256"
        },
        {
          "internalType": "uint16",
          "name": "_maxMintsPerWallet",
          "type": "uint16"
        }
      ],
      "name": "initialize",
      "outputs": [],
      "stateMutability": "nonpayable",
      "type": "function"
    },
    {
      "inputs": [],
      "name": "proxiableUUID",
      "outputs": [
        {
          "internalType": "bytes32",
          "name": "",
          "type": "bytes32"
        }
      ],
      "stateMutability": "view",
      "type": "function"
    },
    {
      "inputs": [
        {
          "internalType": "uint256",
          "name": "_collectionId",
          "type": "uint256"
        },
        {
          "internalType": "string",
          "name": "_uri",
          "type": "string"
        }
      ],
      "name": "publicMint",
      "outputs": [],
      "stateMutability": "payable",
      "type": "function"
    },
    {
      "inputs": [
        {
          "internalType": "bytes32",
          "name": "role",
          "type": "bytes32"
        },
        {
          "internalType": "address",
          "name": "account",
          "type": "address"
        }
      ],
      "name": "renounceRole",
      "outputs": [],
      "stateMutability": "nonpayable",
      "type": "function"
    },
    {
      "inputs": [
        {
          "internalType": "bytes32",
          "name": "role",
          "type": "bytes32"
        },
        {
          "internalType": "address",
          "name": "account",
          "type": "address"
        }
      ],
      "name": "revokeRole",
      "outputs": [],
      "stateMutability": "nonpayable",
      "type": "function"
    },
    {
      "inputs": [
        {
          "internalType": "uint256",
          "name": "_mintPrice",
          "type": "uint256"
        },
        {
          "internalType": "uint256",
          "name": "_maxSupply",
          "type": "uint256"
        },
        {
          "internalType": "uint256",
          "name": "_expiryTime",
          "type": "uint256"
        },
        {
          "internalType": "uint256",
          "name": "_startTime",
          "type": "uint256"
        },
        {
          "internalType": "uint16",
          "name": "_maxMintsPerWallet",
          "type": "uint16"
        }
      ],
      "name": "startGeneration",
      "outputs": [],
      "stateMutability": "nonpayable",
      "type": "function"
    },
    {
      "inputs": [
        {
          "internalType": "bytes4",
          "name": "interfaceId",
          "type": "bytes4"
        }
      ],
      "name": "supportsInterface",
      "outputs": [
        {
          "internalType": "bool",
          "name": "",
          "type": "bool"
        }
      ],
      "stateMutability": "view",
      "type": "function"
    },
    {
      "inputs": [
        {
          "internalType": "address",
          "name": "newImplementation",
          "type": "address"
        }
      ],
      "name": "upgradeTo",
      "outputs": [],
      "stateMutability": "nonpayable",
      "type": "function"
    },
    {
      "inputs": [
        {
          "internalType": "address",
          "name": "newImplementation",
          "type": "address"
        },
        {
          "internalType": "bytes",
          "name": "data",
          "type": "bytes"
        }
      ],
      "name": "upgradeToAndCall",
      "outputs": [],
      "stateMutability": "payable",
      "type": "function"
    },
    {
      "inputs": [
        {
          "internalType": "uint256",
          "name": "amount",
          "type": "uint256"
        }
      ],
      "name": "withdraw",
      "outputs": [],
      "stateMutability": "nonpayable",
      "type": "function"
    },
    {
      "inputs": [],
      "name": "withdrawAll",
      "outputs": [],
      "stateMutability": "nonpayable",
      "type": "function"
    }
  ],
  "bytecode": "0x60a06040523060805234801561001457600080fd5b5061001d610022565b6100e2565b600054610100900460ff161561008e5760405162461bcd60e51b815260206004820152602760248201527f496e697469616c697a61626c653a20636f6e747261637420697320696e697469604482015266616c697a696e6760c81b606482015260840160405180910390fd5b60005460ff90811610156100e0576000805460ff191660ff9081179091556040519081527f7f26b83ff96e1f2b6a682f133852f6798a09c465da95921460cefb38474024989060200160405180910390a15b565b6080516145c66200011a600039600081816105a9015281816105ec01528181610d5801528181610d9b0152610e3301526145c66000f3fe608060405260043610620001375760003560e01c80635a1f3c2811620000ad578063a217fddf116200006c578063a217fddf146200037a578063b9102f7f1462000391578063d547741f14620003b6578063e43252d714620003db578063f72c0d8b146200040057600080fd5b80635a1f3c2814620002ad578063694db4e31462000300578063817f836a1462000318578063853828b6146200033d57806391d14854146200035557600080fd5b806336568abe11620000fa57806336568abe146200021d5780633659cfe614620002425780634af56d9314620002675780634f1ef286146200027e57806352d1902d146200029557600080fd5b806301ffc9a7146200013c5780630a7fb62b1462000176578063248a9ca3146200019d5780632e1a7d4d14620001d15780632f2ff15d14620001f8575b600080fd5b3480156200014957600080fd5b50620001616200015b36600462001b14565b62000425565b60405190151581526020015b60405180910390f35b3480156200018357600080fd5b506200018e62000438565b6040519081526020016200016d565b348015620001aa57600080fd5b506200018e620001bc36600462001b40565b60009081526065602052604090206001015490565b348015620001de57600080fd5b50620001f6620001f036600462001b40565b62000449565b005b3480156200020557600080fd5b50620001f66200021736600462001b77565b620004ef565b3480156200022a57600080fd5b50620001f66200023c36600462001b77565b6200051d565b3480156200024f57600080fd5b50620001f66200026136600462001ba6565b6200059f565b620001f66200027836600462001c57565b6200068a565b620001f66200028f36600462001cb7565b62000d4e565b348015620002a257600080fd5b506200018e62000e26565b348015620002ba57600080fd5b50620002e7620002cc36600462001b40565b600090815260fc60205260409020546001600160a01b031690565b6040516001600160a01b0390911681526020016200016d565b3480156200030d57600080fd5b50620002e762000edc565b3480156200032557600080fd5b50620001f66200033736600462001d04565b62000f07565b3480156200034a57600080fd5b50620001f662000f48565b3480156200036257600080fd5b50620001616200037436600462001b77565b62000f92565b3480156200038757600080fd5b506200018e600081565b3480156200039e57600080fd5b50620001f6620003b036600462001d04565b62000fbd565b348015620003c357600080fd5b50620001f6620003d536600462001b77565b62001126565b348015620003e857600080fd5b50620001f6620003fa36600462001ba6565b6200114f565b3480156200040d57600080fd5b506200018e6000805160206200452a83398151915281565b600062000432826200118f565b92915050565b60006200044460fd5490565b905090565b6000805160206200452a8339815191526200046481620011c6565b478210620004b95760405162461bcd60e51b815260206004820152601b60248201527f416d6f756e742067726561746572207468616e2062616c616e6365000000000060448201526064015b60405180910390fd5b6040513390819084156108fc029085906000818181858888f19350505050158015620004e9573d6000803e3d6000fd5b50505050565b6000828152606560205260409020600101546200050c81620011c6565b620005188383620011d2565b505050565b6001600160a01b03811633146200058f5760405162461bcd60e51b815260206004820152602f60248201527f416363657373436f6e74726f6c3a2063616e206f6e6c792072656e6f756e636560448201526e103937b632b9903337b91039b2b63360891b6064820152608401620004b0565b6200059b82826200125c565b5050565b6001600160a01b037f0000000000000000000000000000000000000000000000000000000000000000163003620005ea5760405162461bcd60e51b8152600401620004b09062001d54565b7f00000000000000000000000000000000000000000000000000000000000000006001600160a01b0316620006356000805160206200454a833981519152546001600160a01b031690565b6001600160a01b0316146200065e5760405162461bcd60e51b8152600401620004b09062001da0565b6200066981620012c6565b604080516000808252602082019092526200068791839190620012e1565b50565b600082815260fc60209081526040808320548151629a9b7b60e01b815291516001600160a01b0390911693928492629a9b7b9260048083019392829003018187875af1158015620006df573d6000803e3d6000fd5b505050506040513d601f19601f8201168201806040525081019062000705919062001dec565b905060006200071360fd5490565b600081815260fe602090815260408083205481516378a8956760e01b815291519495506001600160a01b03169384926378a8956792600480820193918290030181865afa15801562000769573d6000803e3d6000fd5b505050506040513d601f19601f820116820180604052508101906200078f919062001dec565b9050816001600160a01b031663f516a2e66040518163ffffffff1660e01b8152600401602060405180830381865afa158015620007d0573d6000803e3d6000fd5b505050506040513d601f19601f82011682018060405250810190620007f6919062001e06565b61ffff166001600160a01b0383166370a08231336040516001600160e01b031960e084901b1681526001600160a01b039091166004820152602401602060405180830381865afa1580156200084f573d6000803e3d6000fd5b505050506040513d601f19601f8201168201806040525081019062000875919062001dec565b10620008e25760405162461bcd60e51b815260206004820152603560248201527f557365722068617320616c7265616479206d696e746564206d617820746f6b6560448201527437399034b7103a3434b99033b2b732b930ba34b7b760591b6064820152608401620004b0565b80826001600160a01b031663d5abeb016040518163ffffffff1660e01b8152600401602060405180830381865afa15801562000922573d6000803e3d6000fd5b505050506040513d601f19601f8201168201806040525081019062000948919062001dec565b11620009ac5760405162461bcd60e51b815260206004820152602c60248201527f416c6c204e46547320696e20746869732067656e65726174696f6e206861766560448201526b081899595b881b5a5b9d195960a21b6064820152608401620004b0565b816001600160a01b0316636817c76c6040518163ffffffff1660e01b8152600401602060405180830381865afa158015620009eb573d6000803e3d6000fd5b505050506040513d601f19601f8201168201806040525081019062000a11919062001dec565b341462000a615760405162461bcd60e51b815260206004820152601760248201527f4e6f7420656e6f756768204554482070726f76696465640000000000000000006044820152606401620004b0565b33600090815260ff60208190526040909120541662000b2657816001600160a01b03166378e979256040518163ffffffff1660e01b8152600401602060405180830381865afa15801562000ab9573d6000803e3d6000fd5b505050506040513d601f19601f8201168201806040525081019062000adf919062001dec565b421162000b265760405162461bcd60e51b81526020600482015260146024820152734d696e74696e67206e6f7420796574206c69766560601b6044820152606401620004b0565b42826001600160a01b03166399bc0aea6040518163ffffffff1660e01b8152600401602060405180830381865afa15801562000b66573d6000803e3d6000fd5b505050506040513d601f19601f8201168201806040525081019062000b8c919062001dec565b1162000bcf5760405162461bcd60e51b8152602060048201526011602482015270115e1c1a5c9e481a185cc81c185cdcd959607a1b6044820152606401620004b0565b604051632851206560e21b8152336004820152602481018590526001600160a01b0386169063a144819490604401600060405180830381600087803b15801562000c1857600080fd5b505af115801562000c2d573d6000803e3d6000fd5b5050604051630588253160e21b81526001600160a01b038816925063162094c4915062000c619087908a9060040162001e7a565b600060405180830381600087803b15801562000c7c57600080fd5b505af115801562000c91573d6000803e3d6000fd5b505060405163e74aca6360e01b81523360048201526001600160a01b038516925063e74aca639150602401600060405180830381600087803b15801562000cd757600080fd5b505af115801562000cec573d6000803e3d6000fd5b50505050846001600160a01b0316634f3130fa6040518163ffffffff1660e01b8152600401600060405180830381600087803b15801562000d2c57600080fd5b505af115801562000d41573d6000803e3d6000fd5b5050505050505050505050565b6001600160a01b037f000000000000000000000000000000000000000000000000000000000000000016300362000d995760405162461bcd60e51b8152600401620004b09062001d54565b7f00000000000000000000000000000000000000000000000000000000000000006001600160a01b031662000de46000805160206200454a833981519152546001600160a01b031690565b6001600160a01b03161462000e0d5760405162461bcd60e51b8152600401620004b09062001da0565b62000e1882620012c6565b6200059b82826001620012e1565b6000306001600160a01b037f0000000000000000000000000000000000000000000000000000000000000000161462000ec85760405162461bcd60e51b815260206004820152603860248201527f555550535570677261646561626c653a206d757374206e6f742062652063616c60448201527f6c6564207468726f7567682064656c656761746563616c6c00000000000000006064820152608401620004b0565b506000805160206200454a83398151915290565b60008062000ee960fd5490565b600090815260fe60205260409020546001600160a01b031692915050565b6000805160206200452a83398151915262000f2281620011c6565b62000f3160fd80546001019055565b62000f40868686868662001459565b505050505050565b6000805160206200452a83398151915262000f6381620011c6565b604051339081904780156108fc02916000818181858888f1935050505015801562000518573d6000803e3d6000fd5b60009182526065602090815260408084206001600160a01b0393909316845291905290205460ff1690565b600054610100900460ff161580801562000fde5750600054600160ff909116105b8062000ffa5750303b15801562000ffa575060005460ff166001145b6200105f5760405162461bcd60e51b815260206004820152602e60248201527f496e697469616c697a61626c653a20636f6e747261637420697320616c72656160448201526d191e481a5b9a5d1a585b1a5e995960921b6064820152608401620004b0565b6000805460ff19166001179055801562001083576000805461ff0019166101001790555b6200108d6200156e565b620010976200156e565b620010a4600033620011d2565b620010bf6000805160206200452a83398151915233620011d2565b620010c9620015dd565b620010d8868686868662001459565b801562000f40576000805461ff0019169055604051600181527f7f26b83ff96e1f2b6a682f133852f6798a09c465da95921460cefb38474024989060200160405180910390a1505050505050565b6000828152606560205260409020600101546200114381620011c6565b6200051883836200125c565b6000805160206200452a8339815191526200116a81620011c6565b506001600160a01b0316600090815260ff60205260409020805460ff19166001179055565b60006001600160e01b03198216637965db0b60e01b14806200043257506301ffc9a760e01b6001600160e01b031983161462000432565b62000687813362001673565b620011de828262000f92565b6200059b5760008281526065602090815260408083206001600160a01b03851684529091529020805460ff19166001179055620012183390565b6001600160a01b0316816001600160a01b0316837f2f8788117e7eff1d82e926ec794901d17c78024a50270940304540a733656f0d60405160405180910390a45050565b62001268828262000f92565b156200059b5760008281526065602090815260408083206001600160a01b0385168085529252808320805460ff1916905551339285917ff6391f5c32d9c69d2a47ea670b442974b53935d1edc7fd64eb21e047a839171b9190a45050565b6000805160206200452a8339815191526200059b81620011c6565b7f4910fdfa16fed3260ed0e7147f7cc6da11a60208b5b9406d12a635614ffd91435460ff161562001317576200051883620016d7565b826001600160a01b03166352d1902d6040518163ffffffff1660e01b8152600401602060405180830381865afa92505050801562001374575060408051601f3d908101601f19168201909252620013719181019062001dec565b60015b620013d95760405162461bcd60e51b815260206004820152602e60248201527f45524331393637557067726164653a206e657720696d706c656d656e7461746960448201526d6f6e206973206e6f74205555505360901b6064820152608401620004b0565b6000805160206200454a83398151915281146200144b5760405162461bcd60e51b815260206004820152602960248201527f45524331393637557067726164653a20756e737570706f727465642070726f786044820152681a58589b195555525160ba1b6064820152608401620004b0565b506200051883838362001776565b428311620014aa5760405162461bcd60e51b815260206004820152601d60248201527f4578706972792074696d65206d75737420626520696e206675747572650000006044820152606401620004b0565b6000620014b660fd5490565b905060008686868686604051620014cd9062001af8565b94855260208501939093526040840191909152606083015261ffff16608082015260a001604051809103906000f0801580156200150e573d6000803e3d6000fd5b50600083815260fe602052604080822080546001600160a01b0319166001600160a01b03851690811790915590519293509184917f64c5253f4ba3bd619c92d88d4e661a2aa4c09f4acf6353b9e257725f5b8438ff91a350505050505050565b600054610100900460ff16620015db5760405162461bcd60e51b815260206004820152602b60248201527f496e697469616c697a61626c653a20636f6e7472616374206973206e6f74206960448201526a6e697469616c697a696e6760a81b6064820152608401620004b0565b565b6000620015e960fb5490565b90506000604051620015fb9062001b06565b604051809103906000f08015801562001618573d6000803e3d6000fd5b50600083815260fc602052604080822080546001600160a01b0319166001600160a01b03851690811790915590519293509184917f9777cfe00f796119588008a4d28ffada942bbddf6f9d65e651fb9efe5fa189b291a35050565b6200167f828262000f92565b6200059b576200168f81620017a1565b6200169c836020620017b4565b604051602001620016af92919062001e9d565b60408051601f198184030181529082905262461bcd60e51b8252620004b09160040162001f16565b6001600160a01b0381163b620017465760405162461bcd60e51b815260206004820152602d60248201527f455243313936373a206e657720696d706c656d656e746174696f6e206973206e60448201526c1bdd08184818dbdb9d1c9858dd609a1b6064820152608401620004b0565b6000805160206200454a83398151915280546001600160a01b0319166001600160a01b0392909216919091179055565b620017818362001975565b6000825111806200178f5750805b156200051857620004e98383620019b7565b6060620004326001600160a01b03831660145b60606000620017c583600262001f41565b620017d290600262001f5b565b67ffffffffffffffff811115620017ed57620017ed62001bc4565b6040519080825280601f01601f19166020018201604052801562001818576020820181803683370190505b509050600360fc1b8160008151811062001836576200183662001f71565b60200101906001600160f81b031916908160001a905350600f60fb1b8160018151811062001868576200186862001f71565b60200101906001600160f81b031916908160001a90535060006200188e84600262001f41565b6200189b90600162001f5b565b90505b60018111156200191d576f181899199a1a9b1b9c1cb0b131b232b360811b85600f1660108110620018d357620018d362001f71565b1a60f81b828281518110620018ec57620018ec62001f71565b60200101906001600160f81b031916908160001a90535060049490941c93620019158162001f87565b90506200189e565b5083156200196e5760405162461bcd60e51b815260206004820181905260248201527f537472696e67733a20686578206c656e67746820696e73756666696369656e746044820152606401620004b0565b9392505050565b6200198081620016d7565b6040516001600160a01b038216907fbc7cd75a20ee27fd9adebab32041f755214dbc6bffa90cc0225b39da2e5c2d3b90600090a250565b60606001600160a01b0383163b62001a215760405162461bcd60e51b815260206004820152602660248201527f416464726573733a2064656c65676174652063616c6c20746f206e6f6e2d636f6044820152651b9d1c9858dd60d21b6064820152608401620004b0565b600080846001600160a01b03168460405162001a3e919062001fa1565b600060405180830381855af49150503d806000811462001a7b576040519150601f19603f3d011682016040523d82523d6000602084013e62001a80565b606091505b509150915062001aab82826040518060600160405280602781526020016200456a6027913962001ab4565b95945050505050565b6060831562001ac55750816200196e565b6200196e838381511562001adc5781518083602001fd5b8060405162461bcd60e51b8152600401620004b0919062001f16565b6105218062001fc083390190565b61204980620024e183390190565b60006020828403121562001b2757600080fd5b81356001600160e01b0319811681146200196e57600080fd5b60006020828403121562001b5357600080fd5b5035919050565b80356001600160a01b038116811462001b7257600080fd5b919050565b6000806040838503121562001b8b57600080fd5b8235915062001b9d6020840162001b5a565b90509250929050565b60006020828403121562001bb957600080fd5b6200196e8262001b5a565b634e487b7160e01b600052604160045260246000fd5b600067ffffffffffffffff8084111562001bf85762001bf862001bc4565b604051601f8501601f19908116603f0116810190828211818310171562001c235762001c2362001bc4565b8160405280935085815286868601111562001c3d57600080fd5b858560208301376000602087830101525050509392505050565b6000806040838503121562001c6b57600080fd5b82359150602083013567ffffffffffffffff81111562001c8a57600080fd5b8301601f8101851362001c9c57600080fd5b62001cad8582356020840162001bda565b9150509250929050565b6000806040838503121562001ccb57600080fd5b62001cd68362001b5a565b9150602083013567ffffffffffffffff81111562001c8a57600080fd5b61ffff811681146200068757600080fd5b600080600080600060a0868803121562001d1d57600080fd5b85359450602086013593506040860135925060608601359150608086013562001d468162001cf3565b809150509295509295909350565b6020808252602c908201527f46756e6374696f6e206d7573742062652063616c6c6564207468726f7567682060408201526b19195b1959d85d1958d85b1b60a21b606082015260800190565b6020808252602c908201527f46756e6374696f6e206d7573742062652063616c6c6564207468726f7567682060408201526b6163746976652070726f787960a01b606082015260800190565b60006020828403121562001dff57600080fd5b5051919050565b60006020828403121562001e1957600080fd5b81516200196e8162001cf3565b60005b8381101562001e4357818101518382015260200162001e29565b50506000910152565b6000815180845262001e6681602086016020860162001e26565b601f01601f19169290920160200192915050565b82815260406020820152600062001e95604083018462001e4c565b949350505050565b7f416363657373436f6e74726f6c3a206163636f756e742000000000000000000081526000835162001ed781601785016020880162001e26565b7001034b99036b4b9b9b4b733903937b6329607d1b601791840191820152835162001f0a81602884016020880162001e26565b01602801949350505050565b6020815260006200196e602083018462001e4c565b634e487b7160e01b600052601160045260246000fd5b808202811582820484141762000432576200043262001f2b565b8082018082111562000432576200043262001f2b565b634e487b7160e01b600052603260045260246000fd5b60008162001f995762001f9962001f2b565b506000190190565b6000825162001fb581846020870162001e26565b919091019291505056fe608060405234801561001057600080fd5b5060405161052138038061052183398101604081905261002f916100b4565b61003833610064565b6004949094556005929092556006556003556007805461ffff191661ffff909216919091179055610108565b600080546001600160a01b038381166001600160a01b0319831681178455604051919092169283917f8be0079c531659141344cd1fd0a4f28419497f9722a3daafe3b4186f6b6457e09190a35050565b600080600080600060a086880312156100cc57600080fd5b85519450602086015193506040860151925060608601519150608086015161ffff811681146100fa57600080fd5b809150509295509295909350565b61040a806101176000396000f3fe608060405234801561001057600080fd5b50600436106100a95760003560e01c80638da5cb5b116100715780638da5cb5b146100f857806399bc0aea14610113578063d5abeb011461011c578063e74aca6314610125578063f2fde38b14610138578063f516a2e61461014b57600080fd5b80636817c76c146100ae57806370a08231146100ca578063715018a6146100dd57806378a89567146100e757806378e97925146100ef575b600080fd5b6100b760045481565b6040519081526020015b60405180910390f35b6100b76100d836600461037d565b61016c565b6100e56101f7565b005b6100b761020b565b6100b760035481565b6000546040516001600160a01b0390911681526020016100c1565b6100b760065481565b6100b760055481565b6100e561013336600461037d565b61021b565b6100e561014636600461037d565b61025d565b6007546101599061ffff1681565b60405161ffff90911681526020016100c1565b60006001600160a01b0382166101db5760405162461bcd60e51b815260206004820152602960248201527f4552433732313a2061646472657373207a65726f206973206e6f7420612076616044820152683634b21037bbb732b960b91b60648201526084015b60405180910390fd5b506001600160a01b031660009081526002602052604090205490565b6101ff6102d3565b610209600061032d565b565b600061021660015490565b905090565b6102236102d3565b6001600160a01b0381166000908152600260205260408120805491610247836103ad565b919050555061025a600180546001019055565b50565b6102656102d3565b6001600160a01b0381166102ca5760405162461bcd60e51b815260206004820152602660248201527f4f776e61626c653a206e6577206f776e657220697320746865207a65726f206160448201526564647265737360d01b60648201526084016101d2565b61025a8161032d565b6000546001600160a01b031633146102095760405162461bcd60e51b815260206004820181905260248201527f4f776e61626c653a2063616c6c6572206973206e6f7420746865206f776e657260448201526064016101d2565b600080546001600160a01b038381166001600160a01b0319831681178455604051919092169283917f8be0079c531659141344cd1fd0a4f28419497f9722a3daafe3b4186f6b6457e09190a35050565b60006020828403121561038f57600080fd5b81356001600160a01b03811681146103a657600080fd5b9392505050565b6000600182016103cd57634e487b7160e01b600052601160045260246000fd5b506001019056fea26469706673582212208f37292181c59648054f04310956e09b69a3b56d632f40dfa4c8ed4acd28abd664736f6c6343000811003360806040523480156200001157600080fd5b5060405180604001604052806012815260200171426c6f636b616c697a65723a4368726f6d6160701b81525060405180604001604052806005815260200164424c4f434b60d81b815250620000756200006f6200009b60201b60201c565b6200009f565b600162000083838262000194565b50600262000092828262000194565b50505062000260565b3390565b600080546001600160a01b038381166001600160a01b0319831681178455604051919092169283917f8be0079c531659141344cd1fd0a4f28419497f9722a3daafe3b4186f6b6457e09190a35050565b634e487b7160e01b600052604160045260246000fd5b600181811c908216806200011a57607f821691505b6020821081036200013b57634e487b7160e01b600052602260045260246000fd5b50919050565b601f8211156200018f57600081815260208120601f850160051c810160208610156200016a5750805b601f850160051c820191505b818110156200018b5782815560010162000176565b5050505b505050565b81516001600160401b03811115620001b057620001b0620000ef565b620001c881620001c1845462000105565b8462000141565b602080601f831160018114620002005760008415620001e75750858301515b600019600386901b1c1916600185901b1785556200018b565b600085815260208120601f198616915b82811015620002315788860151825594840194600190910190840162000210565b5085821015620002505787850151600019600388901b60f8161c191681555b5050505050600190811b01905550565b611dd980620002706000396000f3fe608060405234801561001057600080fd5b506004361061014c5760003560e01c80634f6ccce7116100c3578063a14481941161007c578063a14481941461029a578063a22cb465146102ad578063b88d4fde146102c0578063c87b56dd146102d3578063e985e9c5146102e6578063f2fde38b1461032257600080fd5b80634f6ccce7146102405780636352211e1461025357806370a0823114610266578063715018a6146102795780638da5cb5b1461028157806395d89b411461029257600080fd5b8063162094c411610115578063162094c4146101e457806318160ddd146101f757806323b872dd146101ff5780632f745c591461021257806342842e0e146102255780634f3130fa1461023857600080fd5b80629a9b7b1461015157806301ffc9a71461016c57806306fdde031461018f578063081812fc146101a4578063095ea7b3146101cf575b600080fd5b610159610335565b6040519081526020015b60405180910390f35b61017f61017a36600461177e565b610345565b6040519015158152602001610163565b610197610370565b60405161016391906117eb565b6101b76101b23660046117fe565b610402565b6040516001600160a01b039091168152602001610163565b6101e26101dd366004611833565b610429565b005b6101e26101f23660046118e9565b610543565b600954610159565b6101e261020d366004611944565b610559565b610159610220366004611833565b61058a565b6101e2610233366004611944565b610620565b6101e261063b565b61015961024e3660046117fe565b610653565b6101b76102613660046117fe565b6106e6565b610159610274366004611980565b610746565b6101e26107cc565b6000546001600160a01b03166101b7565b6101976107de565b6101e26102a8366004611833565b6107ed565b6101e26102bb36600461199b565b6107ff565b6101e26102ce3660046119d7565b61080a565b6101976102e13660046117fe565b610842565b61017f6102f4366004611a53565b6001600160a01b03918216600090815260066020908152604080832093909416825291909152205460ff1690565b6101e2610330366004611980565b61084d565b6000610340600c5490565b905090565b60006001600160e01b0319821663f8cfbed160e01b148061036a575061036a826108c6565b92915050565b60606001805461037f90611a86565b80601f01602080910402602001604051908101604052809291908181526020018280546103ab90611a86565b80156103f85780601f106103cd576101008083540402835291602001916103f8565b820191906000526020600020905b8154815290600101906020018083116103db57829003601f168201915b5050505050905090565b600061040d826108eb565b506000908152600560205260409020546001600160a01b031690565b6000610434826106e6565b9050806001600160a01b0316836001600160a01b0316036104a65760405162461bcd60e51b815260206004820152602160248201527f4552433732313a20617070726f76616c20746f2063757272656e74206f776e656044820152603960f91b60648201526084015b60405180910390fd5b336001600160a01b03821614806104c257506104c281336102f4565b6105345760405162461bcd60e51b815260206004820152603d60248201527f4552433732313a20617070726f76652063616c6c6572206973206e6f7420746f60448201527f6b656e206f776e6572206f7220617070726f76656420666f7220616c6c000000606482015260840161049d565b61053e838361094a565b505050565b61054b6109b8565b6105558282610a12565b5050565b6105633382610aa5565b61057f5760405162461bcd60e51b815260040161049d90611ac0565b61053e838383610b24565b600061059583610746565b82106105f75760405162461bcd60e51b815260206004820152602b60248201527f455243373231456e756d657261626c653a206f776e657220696e646578206f7560448201526a74206f6620626f756e647360a81b606482015260840161049d565b506001600160a01b03919091166000908152600760209081526040808320938352929052205490565b61053e8383836040518060200160405280600081525061080a565b6106436109b8565b610651600c80546001019055565b565b600061065e60095490565b82106106c15760405162461bcd60e51b815260206004820152602c60248201527f455243373231456e756d657261626c653a20676c6f62616c20696e646578206f60448201526b7574206f6620626f756e647360a01b606482015260840161049d565b600982815481106106d4576106d4611b0d565b90600052602060002001549050919050565b6000818152600360205260408120546001600160a01b03168061036a5760405162461bcd60e51b8152602060048201526018602482015277115490cdcc8c4e881a5b9d985b1a59081d1bdad95b88125160421b604482015260640161049d565b60006001600160a01b0382166107b05760405162461bcd60e51b815260206004820152602960248201527f4552433732313a2061646472657373207a65726f206973206e6f7420612076616044820152683634b21037bbb732b960b91b606482015260840161049d565b506001600160a01b031660009081526004602052604090205490565b6107d46109b8565b6106516000610c95565b60606002805461037f90611a86565b6107f56109b8565b6105558282610ce5565b610555338383610cff565b6108143383610aa5565b6108305760405162461bcd60e51b815260040161049d90611ac0565b61083c84848484610dcd565b50505050565b606061036a82610e00565b6108556109b8565b6001600160a01b0381166108ba5760405162461bcd60e51b815260206004820152602660248201527f4f776e61626c653a206e6577206f776e657220697320746865207a65726f206160448201526564647265737360d01b606482015260840161049d565b6108c381610c95565b50565b60006001600160e01b0319821663780e9d6360e01b148061036a575061036a82610f08565b6000818152600360205260409020546001600160a01b03166108c35760405162461bcd60e51b8152602060048201526018602482015277115490cdcc8c4e881a5b9d985b1a59081d1bdad95b88125160421b604482015260640161049d565b600081815260056020526040902080546001600160a01b0319166001600160a01b038416908117909155819061097f826106e6565b6001600160a01b03167f8c5be1e5ebec7d5bd14f71427d1e84f3dd0314c0f7b2291e5b200ac8c7c3b92560405160405180910390a45050565b6000546001600160a01b031633146106515760405162461bcd60e51b815260206004820181905260248201527f4f776e61626c653a2063616c6c6572206973206e6f7420746865206f776e6572604482015260640161049d565b6000828152600360205260409020546001600160a01b0316610a8d5760405162461bcd60e51b815260206004820152602e60248201527f45524337323155524953746f726167653a2055524920736574206f66206e6f6e60448201526d32bc34b9ba32b73a103a37b5b2b760911b606482015260840161049d565b6000828152600b6020526040902061053e8282611b71565b600080610ab1836106e6565b9050806001600160a01b0316846001600160a01b03161480610af857506001600160a01b0380821660009081526006602090815260408083209388168352929052205460ff165b80610b1c5750836001600160a01b0316610b1184610402565b6001600160a01b0316145b949350505050565b826001600160a01b0316610b37826106e6565b6001600160a01b031614610b5d5760405162461bcd60e51b815260040161049d90611c31565b6001600160a01b038216610bbf5760405162461bcd60e51b8152602060048201526024808201527f4552433732313a207472616e7366657220746f20746865207a65726f206164646044820152637265737360e01b606482015260840161049d565b610bcc8383836001610f58565b826001600160a01b0316610bdf826106e6565b6001600160a01b031614610c055760405162461bcd60e51b815260040161049d90611c31565b600081815260056020908152604080832080546001600160a01b03199081169091556001600160a01b0387811680865260048552838620805460001901905590871680865283862080546001019055868652600390945282852080549092168417909155905184937fddf252ad1be2c89b69c2b068fc378daa952ba7f163c4a11628f55a4df523b3ef91a4505050565b600080546001600160a01b038381166001600160a01b0319831681178455604051919092169283917f8be0079c531659141344cd1fd0a4f28419497f9722a3daafe3b4186f6b6457e09190a35050565b610555828260405180602001604052806000815250610f64565b816001600160a01b0316836001600160a01b031603610d605760405162461bcd60e51b815260206004820152601960248201527f4552433732313a20617070726f766520746f2063616c6c657200000000000000604482015260640161049d565b6001600160a01b03838116600081815260066020908152604080832094871680845294825291829020805460ff191686151590811790915591519182527f17307eab39ab6107e8899845ad3d59bd9653f200f220920489ca2b5937696c31910160405180910390a3505050565b610dd8848484610b24565b610de484848484610f97565b61083c5760405162461bcd60e51b815260040161049d90611c76565b6060610e0b826108eb565b6000828152600b602052604081208054610e2490611a86565b80601f0160208091040260200160405190810160405280929190818152602001828054610e5090611a86565b8015610e9d5780601f10610e7257610100808354040283529160200191610e9d565b820191906000526020600020905b815481529060010190602001808311610e8057829003601f168201915b505050505090506000610ebb60408051602081019091526000815290565b90508051600003610ecd575092915050565b815115610eff578082604051602001610ee7929190611cc8565b60405160208183030381529060405292505050919050565b610b1c84611098565b60006001600160e01b031982166380ac58cd60e01b1480610f3957506001600160e01b03198216635b5e139f60e01b145b8061036a57506301ffc9a760e01b6001600160e01b031983161461036a565b61083c8484848461110c565b610f6e838361124c565b610f7b6000848484610f97565b61053e5760405162461bcd60e51b815260040161049d90611c76565b60006001600160a01b0384163b1561108d57604051630a85bd0160e11b81526001600160a01b0385169063150b7a0290610fdb903390899088908890600401611cf7565b6020604051808303816000875af1925050508015611016575060408051601f3d908101601f1916820190925261101391810190611d34565b60015b611073573d808015611044576040519150601f19603f3d011682016040523d82523d6000602084013e611049565b606091505b50805160000361106b5760405162461bcd60e51b815260040161049d90611c76565b805181602001fd5b6001600160e01b031916630a85bd0160e11b149050610b1c565b506001949350505050565b60606110a3826108eb565b60006110ba60408051602081019091526000815290565b905060008151116110da5760405180602001604052806000815250611105565b806110e4846113e5565b6040516020016110f5929190611cc8565b6040516020818303038152906040525b9392505050565b61111884848484611478565b60018111156111875760405162461bcd60e51b815260206004820152603560248201527f455243373231456e756d657261626c653a20636f6e7365637574697665207472604482015274185b9cd9995c9cc81b9bdd081cdd5c1c1bdc9d1959605a1b606482015260840161049d565b816001600160a01b0385166111e3576111de81600980546000838152600a60205260408120829055600182018355919091527f6e1540171b6c0c960b71a7020d9f60077f6af931a8bbf590da0223dacf75c7af0155565b611206565b836001600160a01b0316856001600160a01b031614611206576112068582611500565b6001600160a01b0384166112225761121d8161159d565b611245565b846001600160a01b0316846001600160a01b03161461124557611245848261164c565b5050505050565b6001600160a01b0382166112a25760405162461bcd60e51b815260206004820181905260248201527f4552433732313a206d696e7420746f20746865207a65726f2061646472657373604482015260640161049d565b6000818152600360205260409020546001600160a01b0316156113075760405162461bcd60e51b815260206004820152601c60248201527f4552433732313a20746f6b656e20616c7265616479206d696e74656400000000604482015260640161049d565b611315600083836001610f58565b6000818152600360205260409020546001600160a01b03161561137a5760405162461bcd60e51b815260206004820152601c60248201527f4552433732313a20746f6b656e20616c7265616479206d696e74656400000000604482015260640161049d565b6001600160a01b038216600081815260046020908152604080832080546001019055848352600390915280822080546001600160a01b0319168417905551839291907fddf252ad1be2c89b69c2b068fc378daa952ba7f163c4a11628f55a4df523b3ef908290a45050565b606060006113f283611690565b600101905060008167ffffffffffffffff8111156114125761141261185d565b6040519080825280601f01601f19166020018201604052801561143c576020820181803683370190505b5090508181016020015b600019016f181899199a1a9b1b9c1cb0b131b232b360811b600a86061a8153600a850494508461144657509392505050565b600181111561083c576001600160a01b038416156114be576001600160a01b038416600090815260046020526040812080548392906114b8908490611d67565b90915550505b6001600160a01b0383161561083c576001600160a01b038316600090815260046020526040812080548392906114f5908490611d7a565b909155505050505050565b6000600161150d84610746565b6115179190611d67565b60008381526008602052604090205490915080821461156a576001600160a01b03841660009081526007602090815260408083208584528252808320548484528184208190558352600890915290208190555b5060009182526008602090815260408084208490556001600160a01b039094168352600781528383209183525290812055565b6009546000906115af90600190611d67565b6000838152600a6020526040812054600980549394509092849081106115d7576115d7611b0d565b9060005260206000200154905080600983815481106115f8576115f8611b0d565b6000918252602080832090910192909255828152600a9091526040808220849055858252812055600980548061163057611630611d8d565b6001900381819060005260206000200160009055905550505050565b600061165783610746565b6001600160a01b039093166000908152600760209081526040808320868452825280832085905593825260089052919091209190915550565b60008072184f03e93ff9f4daa797ed6e38ed64bf6a1f0160401b83106116cf5772184f03e93ff9f4daa797ed6e38ed64bf6a1f0160401b830492506040015b6d04ee2d6d415b85acef810000000083106116fb576d04ee2d6d415b85acef8100000000830492506020015b662386f26fc10000831061171957662386f26fc10000830492506010015b6305f5e1008310611731576305f5e100830492506008015b612710831061174557612710830492506004015b60648310611757576064830492506002015b600a831061036a5760010192915050565b6001600160e01b0319811681146108c357600080fd5b60006020828403121561179057600080fd5b813561110581611768565b60005b838110156117b657818101518382015260200161179e565b50506000910152565b600081518084526117d781602086016020860161179b565b601f01601f19169290920160200192915050565b60208152600061110560208301846117bf565b60006020828403121561181057600080fd5b5035919050565b80356001600160a01b038116811461182e57600080fd5b919050565b6000806040838503121561184657600080fd5b61184f83611817565b946020939093013593505050565b634e487b7160e01b600052604160045260246000fd5b600067ffffffffffffffff8084111561188e5761188e61185d565b604051601f8501601f19908116603f011681019082821181831017156118b6576118b661185d565b816040528093508581528686860111156118cf57600080fd5b858560208301376000602087830101525050509392505050565b600080604083850312156118fc57600080fd5b82359150602083013567ffffffffffffffff81111561191a57600080fd5b8301601f8101851361192b57600080fd5b61193a85823560208401611873565b9150509250929050565b60008060006060848603121561195957600080fd5b61196284611817565b925061197060208501611817565b9150604084013590509250925092565b60006020828403121561199257600080fd5b61110582611817565b600080604083850312156119ae57600080fd5b6119b783611817565b9150602083013580151581146119cc57600080fd5b809150509250929050565b600080600080608085870312156119ed57600080fd5b6119f685611817565b9350611a0460208601611817565b925060408501359150606085013567ffffffffffffffff811115611a2757600080fd5b8501601f81018713611a3857600080fd5b611a4787823560208401611873565b91505092959194509250565b60008060408385031215611a6657600080fd5b611a6f83611817565b9150611a7d60208401611817565b90509250929050565b600181811c90821680611a9a57607f821691505b602082108103611aba57634e487b7160e01b600052602260045260246000fd5b50919050565b6020808252602d908201527f4552433732313a2063616c6c6572206973206e6f7420746f6b656e206f776e6560408201526c1c881bdc88185c1c1c9bdd9959609a1b606082015260800190565b634e487b7160e01b600052603260045260246000fd5b601f82111561053e57600081815260208120601f850160051c81016020861015611b4a5750805b601f850160051c820191505b81811015611b6957828155600101611b56565b505050505050565b815167ffffffffffffffff811115611b8b57611b8b61185d565b611b9f81611b998454611a86565b84611b23565b602080601f831160018114611bd45760008415611bbc5750858301515b600019600386901b1c1916600185901b178555611b69565b600085815260208120601f198616915b82811015611c0357888601518255948401946001909101908401611be4565b5085821015611c215787850151600019600388901b60f8161c191681555b5050505050600190811b01905550565b60208082526025908201527f4552433732313a207472616e736665722066726f6d20696e636f72726563742060408201526437bbb732b960d91b606082015260800190565b60208082526032908201527f4552433732313a207472616e7366657220746f206e6f6e20455243373231526560408201527131b2b4bb32b91034b6b83632b6b2b73a32b960711b606082015260800190565b60008351611cda81846020880161179b565b835190830190611cee81836020880161179b565b01949350505050565b6001600160a01b0385811682528416602082015260408101839052608060608201819052600090611d2a908301846117bf565b9695505050505050565b600060208284031215611d4657600080fd5b815161110581611768565b634e487b7160e01b600052601160045260246000fd5b8181038181111561036a5761036a611d51565b8082018082111561036a5761036a611d51565b634e487b7160e01b600052603160045260246000fdfea2646970667358221220b81b70bafd58572dd01517b358d8c5154485b3c9c77d2043b33698fe54622e4064736f6c63430008110033189ab7a9244df0848122154315af71fe140f3db0fe014031783b0946b8c9d2e3360894a13ba1a3210667c828492db98dca3e2076cc3735a920a3ca505d382bbc416464726573733a206c6f772d6c6576656c2064656c65676174652063616c6c206661696c6564a2646970667358221220880f4212392c0cbf365203860a7f7cc93f0d0cb972eb0d3dacacd8abcc914f0b64736f6c63430008110033",
  "linkReferences": {},
  "deployedLinkReferences": {}
}