{
  "_format": "hh-sol-artifact-1",
  "contractName": "BlockalizerV3",
  "sourceName": "contracts/BlockalizerV3.sol",
  "abi": [
    {
      "inputs": [],
      "stateMutability": "nonpayable",
      "type": "constructor"
    },
    {
      "anonymous": false,
      "inputs": [
        {
          "indexed": true,
          "internalType": "address",
          "name": "owner",
          "type": "address"
        },
        {
          "indexed": true,
          "internalType": "address",
          "name": "approved",
          "type": "address"
        },
        {
          "indexed": true,
          "internalType": "uint256",
          "name": "tokenId",
          "type": "uint256"
        }
      ],
      "name": "Approval",
      "type": "event"
    },
    {
      "anonymous": false,
      "inputs": [
        {
          "indexed": true,
          "internalType": "address",
          "name": "owner",
          "type": "address"
        },
        {
          "indexed": true,
          "internalType": "address",
          "name": "operator",
          "type": "address"
        },
        {
          "indexed": false,
          "internalType": "bool",
          "name": "approved",
          "type": "bool"
        }
      ],
      "name": "ApprovalForAll",
      "type": "event"
    },
    {
      "anonymous": false,
      "inputs": [
        {
          "indexed": true,
          "internalType": "address",
          "name": "previousOwner",
          "type": "address"
        },
        {
          "indexed": true,
          "internalType": "address",
          "name": "newOwner",
          "type": "address"
        }
      ],
      "name": "OwnershipTransferred",
      "type": "event"
    },
    {
      "anonymous": false,
      "inputs": [
        {
          "indexed": true,
          "internalType": "address",
          "name": "from",
          "type": "address"
        },
        {
          "indexed": true,
          "internalType": "address",
          "name": "to",
          "type": "address"
        },
        {
          "indexed": true,
          "internalType": "uint256",
          "name": "tokenId",
          "type": "uint256"
        }
      ],
      "name": "Transfer",
      "type": "event"
    },
    {
      "inputs": [
        {
          "internalType": "address",
          "name": "to",
          "type": "address"
        },
        {
          "internalType": "uint256",
          "name": "tokenId",
          "type": "uint256"
        }
      ],
      "name": "approve",
      "outputs": [],
      "stateMutability": "nonpayable",
      "type": "function"
    },
    {
      "inputs": [
        {
          "internalType": "address",
          "name": "owner",
          "type": "address"
        }
      ],
      "name": "balanceOf",
      "outputs": [
        {
          "internalType": "uint256",
          "name": "",
          "type": "uint256"
        }
      ],
      "stateMutability": "view",
      "type": "function"
    },
    {
      "inputs": [],
      "name": "currentTokenId",
      "outputs": [
        {
          "internalType": "uint256",
          "name": "",
          "type": "uint256"
        }
      ],
      "stateMutability": "view",
      "type": "function"
    },
    {
      "inputs": [
        {
          "internalType": "uint256",
          "name": "tokenId",
          "type": "uint256"
        }
      ],
      "name": "getApproved",
      "outputs": [
        {
          "internalType": "address",
          "name": "",
          "type": "address"
        }
      ],
      "stateMutability": "view",
      "type": "function"
    },
    {
      "inputs": [],
      "name": "incrementTokenId",
      "outputs": [],
      "stateMutability": "nonpayable",
      "type": "function"
    },
    {
      "inputs": [
        {
          "internalType": "address",
          "name": "owner",
          "type": "address"
        },
        {
          "internalType": "address",
          "name": "operator",
          "type": "address"
        }
      ],
      "name": "isApprovedForAll",
      "outputs": [
        {
          "internalType": "bool",
          "name": "",
          "type": "bool"
        }
      ],
      "stateMutability": "view",
      "type": "function"
    },
    {
      "inputs": [],
      "name": "name",
      "outputs": [
        {
          "internalType": "string",
          "name": "",
          "type": "string"
        }
      ],
      "stateMutability": "view",
      "type": "function"
    },
    {
      "inputs": [],
      "name": "owner",
      "outputs": [
        {
          "internalType": "address",
          "name": "",
          "type": "address"
        }
      ],
      "stateMutability": "view",
      "type": "function"
    },
    {
      "inputs": [
        {
          "internalType": "uint256",
          "name": "tokenId",
          "type": "uint256"
        }
      ],
      "name": "ownerOf",
      "outputs": [
        {
          "internalType": "address",
          "name": "",
          "type": "address"
        }
      ],
      "stateMutability": "view",
      "type": "function"
    },
    {
      "inputs": [],
      "name": "renounceOwnership",
      "outputs": [],
      "stateMutability": "nonpayable",
      "type": "function"
    },
    {
      "inputs": [
        {
          "internalType": "address",
          "name": "to",
          "type": "address"
        },
        {
          "internalType": "uint256",
          "name": "tokenId",
          "type": "uint256"
        }
      ],
      "name": "safeMint",
      "outputs": [],
      "stateMutability": "nonpayable",
      "type": "function"
    },
    {
      "inputs": [
        {
          "internalType": "address",
          "name": "from",
          "type": "address"
        },
        {
          "internalType": "address",
          "name": "to",
          "type": "address"
        },
        {
          "internalType": "uint256",
          "name": "tokenId",
          "type": "uint256"
        }
      ],
      "name": "safeTransferFrom",
      "outputs": [],
      "stateMutability": "nonpayable",
      "type": "function"
    },
    {
      "inputs": [
        {
          "internalType": "address",
          "name": "from",
          "type": "address"
        },
        {
          "internalType": "address",
          "name": "to",
          "type": "address"
        },
        {
          "internalType": "uint256",
          "name": "tokenId",
          "type": "uint256"
        },
        {
          "internalType": "bytes",
          "name": "data",
          "type": "bytes"
        }
      ],
      "name": "safeTransferFrom",
      "outputs": [],
      "stateMutability": "nonpayable",
      "type": "function"
    },
    {
      "inputs": [
        {
          "internalType": "address",
          "name": "operator",
          "type": "address"
        },
        {
          "internalType": "bool",
          "name": "approved",
          "type": "bool"
        }
      ],
      "name": "setApprovalForAll",
      "outputs": [],
      "stateMutability": "nonpayable",
      "type": "function"
    },
    {
      "inputs": [
        {
          "internalType": "uint256",
          "name": "tokenId",
          "type": "uint256"
        },
        {
          "internalType": "string",
          "name": "_uri",
          "type": "string"
        }
      ],
      "name": "setTokenURI",
      "outputs": [],
      "stateMutability": "nonpayable",
      "type": "function"
    },
    {
      "inputs": [
        {
          "internalType": "bytes4",
          "name": "interfaceId",
          "type": "bytes4"
        }
      ],
      "name": "supportsInterface",
      "outputs": [
        {
          "internalType": "bool",
          "name": "",
          "type": "bool"
        }
      ],
      "stateMutability": "view",
      "type": "function"
    },
    {
      "inputs": [],
      "name": "symbol",
      "outputs": [
        {
          "internalType": "string",
          "name": "",
          "type": "string"
        }
      ],
      "stateMutability": "view",
      "type": "function"
    },
    {
      "inputs": [
        {
          "internalType": "uint256",
          "name": "index",
          "type": "uint256"
        }
      ],
      "name": "tokenByIndex",
      "outputs": [
        {
          "internalType": "uint256",
          "name": "",
          "type": "uint256"
        }
      ],
      "stateMutability": "view",
      "type": "function"
    },
    {
      "inputs": [
        {
          "internalType": "address",
          "name": "owner",
          "type": "address"
        },
        {
          "internalType": "uint256",
          "name": "index",
          "type": "uint256"
        }
      ],
      "name": "tokenOfOwnerByIndex",
      "outputs": [
        {
          "internalType": "uint256",
          "name": "",
          "type": "uint256"
        }
      ],
      "stateMutability": "view",
      "type": "function"
    },
    {
      "inputs": [
        {
          "internalType": "uint256",
          "name": "tokenId",
          "type": "uint256"
        }
      ],
      "name": "tokenURI",
      "outputs": [
        {
          "internalType": "string",
          "name": "",
          "type": "string"
        }
      ],
      "stateMutability": "view",
      "type": "function"
    },
    {
      "inputs": [],
      "name": "totalSupply",
      "outputs": [
        {
          "internalType": "uint256",
          "name": "",
          "type": "uint256"
        }
      ],
      "stateMutability": "view",
      "type": "function"
    },
    {
      "inputs": [
        {
          "internalType": "address",
          "name": "from",
          "type": "address"
        },
        {
          "internalType": "address",
          "name": "to",
          "type": "address"
        },
        {
          "internalType": "uint256",
          "name": "tokenId",
          "type": "uint256"
        }
      ],
      "name": "transferFrom",
      "outputs": [],
      "stateMutability": "nonpayable",
      "type": "function"
    },
    {
      "inputs": [
        {
          "internalType": "address",
          "name": "newOwner",
          "type": "address"
        }
      ],
      "name": "transferOwnership",
      "outputs": [],
      "stateMutability": "nonpayable",
      "type": "function"
    }
  ],
  "bytecode": "0x60806040523480156200001157600080fd5b5060405180604001604052806012815260200171426c6f636b616c697a65723a4368726f6d6160701b81525060405180604001604052806005815260200164424c4f434b60d81b815250620000756200006f6200009b60201b60201c565b6200009f565b600162000083838262000194565b50600262000092828262000194565b50505062000260565b3390565b600080546001600160a01b038381166001600160a01b0319831681178455604051919092169283917f8be0079c531659141344cd1fd0a4f28419497f9722a3daafe3b4186f6b6457e09190a35050565b634e487b7160e01b600052604160045260246000fd5b600181811c908216806200011a57607f821691505b6020821081036200013b57634e487b7160e01b600052602260045260246000fd5b50919050565b601f8211156200018f57600081815260208120601f850160051c810160208610156200016a5750805b601f850160051c820191505b818110156200018b5782815560010162000176565b5050505b505050565b81516001600160401b03811115620001b057620001b0620000ef565b620001c881620001c1845462000105565b8462000141565b602080601f831160018114620002005760008415620001e75750858301515b600019600386901b1c1916600185901b1785556200018b565b600085815260208120601f198616915b82811015620002315788860151825594840194600190910190840162000210565b5085821015620002505787850151600019600388901b60f8161c191681555b5050505050600190811b01905550565b611dd980620002706000396000f3fe608060405234801561001057600080fd5b506004361061014c5760003560e01c80634f6ccce7116100c3578063a14481941161007c578063a14481941461029a578063a22cb465146102ad578063b88d4fde146102c0578063c87b56dd146102d3578063e985e9c5146102e6578063f2fde38b1461032257600080fd5b80634f6ccce7146102405780636352211e1461025357806370a0823114610266578063715018a6146102795780638da5cb5b1461028157806395d89b411461029257600080fd5b8063162094c411610115578063162094c4146101e457806318160ddd146101f757806323b872dd146101ff5780632f745c591461021257806342842e0e146102255780634f3130fa1461023857600080fd5b80629a9b7b1461015157806301ffc9a71461016c57806306fdde031461018f578063081812fc146101a4578063095ea7b3146101cf575b600080fd5b610159610335565b6040519081526020015b60405180910390f35b61017f61017a36600461177e565b610345565b6040519015158152602001610163565b610197610370565b60405161016391906117eb565b6101b76101b23660046117fe565b610402565b6040516001600160a01b039091168152602001610163565b6101e26101dd366004611833565b610429565b005b6101e26101f23660046118e9565b610543565b600954610159565b6101e261020d366004611944565b610559565b610159610220366004611833565b61058a565b6101e2610233366004611944565b610620565b6101e261063b565b61015961024e3660046117fe565b610653565b6101b76102613660046117fe565b6106e6565b610159610274366004611980565b610746565b6101e26107cc565b6000546001600160a01b03166101b7565b6101976107de565b6101e26102a8366004611833565b6107ed565b6101e26102bb36600461199b565b6107ff565b6101e26102ce3660046119d7565b61080a565b6101976102e13660046117fe565b610842565b61017f6102f4366004611a53565b6001600160a01b03918216600090815260066020908152604080832093909416825291909152205460ff1690565b6101e2610330366004611980565b61084d565b6000610340600c5490565b905090565b60006001600160e01b0319821663f8cfbed160e01b148061036a575061036a826108c6565b92915050565b60606001805461037f90611a86565b80601f01602080910402602001604051908101604052809291908181526020018280546103ab90611a86565b80156103f85780601f106103cd576101008083540402835291602001916103f8565b820191906000526020600020905b8154815290600101906020018083116103db57829003601f168201915b5050505050905090565b600061040d826108eb565b506000908152600560205260409020546001600160a01b031690565b6000610434826106e6565b9050806001600160a01b0316836001600160a01b0316036104a65760405162461bcd60e51b815260206004820152602160248201527f4552433732313a20617070726f76616c20746f2063757272656e74206f776e656044820152603960f91b60648201526084015b60405180910390fd5b336001600160a01b03821614806104c257506104c281336102f4565b6105345760405162461bcd60e51b815260206004820152603d60248201527f4552433732313a20617070726f76652063616c6c6572206973206e6f7420746f60448201527f6b656e206f776e6572206f7220617070726f76656420666f7220616c6c000000606482015260840161049d565b61053e838361094a565b505050565b61054b6109b8565b6105558282610a12565b5050565b6105633382610aa5565b61057f5760405162461bcd60e51b815260040161049d90611ac0565b61053e838383610b24565b600061059583610746565b82106105f75760405162461bcd60e51b815260206004820152602b60248201527f455243373231456e756d657261626c653a206f776e657220696e646578206f7560448201526a74206f6620626f756e647360a81b606482015260840161049d565b506001600160a01b03919091166000908152600760209081526040808320938352929052205490565b61053e8383836040518060200160405280600081525061080a565b6106436109b8565b610651600c80546001019055565b565b600061065e60095490565b82106106c15760405162461bcd60e51b815260206004820152602c60248201527f455243373231456e756d657261626c653a20676c6f62616c20696e646578206f60448201526b7574206f6620626f756e647360a01b606482015260840161049d565b600982815481106106d4576106d4611b0d565b90600052602060002001549050919050565b6000818152600360205260408120546001600160a01b03168061036a5760405162461bcd60e51b8152602060048201526018602482015277115490cdcc8c4e881a5b9d985b1a59081d1bdad95b88125160421b604482015260640161049d565b60006001600160a01b0382166107b05760405162461bcd60e51b815260206004820152602960248201527f4552433732313a2061646472657373207a65726f206973206e6f7420612076616044820152683634b21037bbb732b960b91b606482015260840161049d565b506001600160a01b031660009081526004602052604090205490565b6107d46109b8565b6106516000610c95565b60606002805461037f90611a86565b6107f56109b8565b6105558282610ce5565b610555338383610cff565b6108143383610aa5565b6108305760405162461bcd60e51b815260040161049d90611ac0565b61083c84848484610dcd565b50505050565b606061036a82610e00565b6108556109b8565b6001600160a01b0381166108ba5760405162461bcd60e51b815260206004820152602660248201527f4f776e61626c653a206e6577206f776e657220697320746865207a65726f206160448201526564647265737360d01b606482015260840161049d565b6108c381610c95565b50565b60006001600160e01b0319821663780e9d6360e01b148061036a575061036a82610f08565b6000818152600360205260409020546001600160a01b03166108c35760405162461bcd60e51b8152602060048201526018602482015277115490cdcc8c4e881a5b9d985b1a59081d1bdad95b88125160421b604482015260640161049d565b600081815260056020526040902080546001600160a01b0319166001600160a01b038416908117909155819061097f826106e6565b6001600160a01b03167f8c5be1e5ebec7d5bd14f71427d1e84f3dd0314c0f7b2291e5b200ac8c7c3b92560405160405180910390a45050565b6000546001600160a01b031633146106515760405162461bcd60e51b815260206004820181905260248201527f4f776e61626c653a2063616c6c6572206973206e6f7420746865206f776e6572604482015260640161049d565b6000828152600360205260409020546001600160a01b0316610a8d5760405162461bcd60e51b815260206004820152602e60248201527f45524337323155524953746f726167653a2055524920736574206f66206e6f6e60448201526d32bc34b9ba32b73a103a37b5b2b760911b606482015260840161049d565b6000828152600b6020526040902061053e8282611b71565b600080610ab1836106e6565b9050806001600160a01b0316846001600160a01b03161480610af857506001600160a01b0380821660009081526006602090815260408083209388168352929052205460ff165b80610b1c5750836001600160a01b0316610b1184610402565b6001600160a01b0316145b949350505050565b826001600160a01b0316610b37826106e6565b6001600160a01b031614610b5d5760405162461bcd60e51b815260040161049d90611c31565b6001600160a01b038216610bbf5760405162461bcd60e51b8152602060048201526024808201527f4552433732313a207472616e7366657220746f20746865207a65726f206164646044820152637265737360e01b606482015260840161049d565b610bcc8383836001610f58565b826001600160a01b0316610bdf826106e6565b6001600160a01b031614610c055760405162461bcd60e51b815260040161049d90611c31565b600081815260056020908152604080832080546001600160a01b03199081169091556001600160a01b0387811680865260048552838620805460001901905590871680865283862080546001019055868652600390945282852080549092168417909155905184937fddf252ad1be2c89b69c2b068fc378daa952ba7f163c4a11628f55a4df523b3ef91a4505050565b600080546001600160a01b038381166001600160a01b0319831681178455604051919092169283917f8be0079c531659141344cd1fd0a4f28419497f9722a3daafe3b4186f6b6457e09190a35050565b610555828260405180602001604052806000815250610f64565b816001600160a01b0316836001600160a01b031603610d605760405162461bcd60e51b815260206004820152601960248201527f4552433732313a20617070726f766520746f2063616c6c657200000000000000604482015260640161049d565b6001600160a01b03838116600081815260066020908152604080832094871680845294825291829020805460ff191686151590811790915591519182527f17307eab39ab6107e8899845ad3d59bd9653f200f220920489ca2b5937696c31910160405180910390a3505050565b610dd8848484610b24565b610de484848484610f97565b61083c5760405162461bcd60e51b815260040161049d90611c76565b6060610e0b826108eb565b6000828152600b602052604081208054610e2490611a86565b80601f0160208091040260200160405190810160405280929190818152602001828054610e5090611a86565b8015610e9d5780601f10610e7257610100808354040283529160200191610e9d565b820191906000526020600020905b815481529060010190602001808311610e8057829003601f168201915b505050505090506000610ebb60408051602081019091526000815290565b90508051600003610ecd575092915050565b815115610eff578082604051602001610ee7929190611cc8565b60405160208183030381529060405292505050919050565b610b1c84611098565b60006001600160e01b031982166380ac58cd60e01b1480610f3957506001600160e01b03198216635b5e139f60e01b145b8061036a57506301ffc9a760e01b6001600160e01b031983161461036a565b61083c8484848461110c565b610f6e838361124c565b610f7b6000848484610f97565b61053e5760405162461bcd60e51b815260040161049d90611c76565b60006001600160a01b0384163b1561108d57604051630a85bd0160e11b81526001600160a01b0385169063150b7a0290610fdb903390899088908890600401611cf7565b6020604051808303816000875af1925050508015611016575060408051601f3d908101601f1916820190925261101391810190611d34565b60015b611073573d808015611044576040519150601f19603f3d011682016040523d82523d6000602084013e611049565b606091505b50805160000361106b5760405162461bcd60e51b815260040161049d90611c76565b805181602001fd5b6001600160e01b031916630a85bd0160e11b149050610b1c565b506001949350505050565b60606110a3826108eb565b60006110ba60408051602081019091526000815290565b905060008151116110da5760405180602001604052806000815250611105565b806110e4846113e5565b6040516020016110f5929190611cc8565b6040516020818303038152906040525b9392505050565b61111884848484611478565b60018111156111875760405162461bcd60e51b815260206004820152603560248201527f455243373231456e756d657261626c653a20636f6e7365637574697665207472604482015274185b9cd9995c9cc81b9bdd081cdd5c1c1bdc9d1959605a1b606482015260840161049d565b816001600160a01b0385166111e3576111de81600980546000838152600a60205260408120829055600182018355919091527f6e1540171b6c0c960b71a7020d9f60077f6af931a8bbf590da0223dacf75c7af0155565b611206565b836001600160a01b0316856001600160a01b031614611206576112068582611500565b6001600160a01b0384166112225761121d8161159d565b611245565b846001600160a01b0316846001600160a01b03161461124557611245848261164c565b5050505050565b6001600160a01b0382166112a25760405162461bcd60e51b815260206004820181905260248201527f4552433732313a206d696e7420746f20746865207a65726f2061646472657373604482015260640161049d565b6000818152600360205260409020546001600160a01b0316156113075760405162461bcd60e51b815260206004820152601c60248201527f4552433732313a20746f6b656e20616c7265616479206d696e74656400000000604482015260640161049d565b611315600083836001610f58565b6000818152600360205260409020546001600160a01b03161561137a5760405162461bcd60e51b815260206004820152601c60248201527f4552433732313a20746f6b656e20616c7265616479206d696e74656400000000604482015260640161049d565b6001600160a01b038216600081815260046020908152604080832080546001019055848352600390915280822080546001600160a01b0319168417905551839291907fddf252ad1be2c89b69c2b068fc378daa952ba7f163c4a11628f55a4df523b3ef908290a45050565b606060006113f283611690565b600101905060008167ffffffffffffffff8111156114125761141261185d565b6040519080825280601f01601f19166020018201604052801561143c576020820181803683370190505b5090508181016020015b600019016f181899199a1a9b1b9c1cb0b131b232b360811b600a86061a8153600a850494508461144657509392505050565b600181111561083c576001600160a01b038416156114be576001600160a01b038416600090815260046020526040812080548392906114b8908490611d67565b90915550505b6001600160a01b0383161561083c576001600160a01b038316600090815260046020526040812080548392906114f5908490611d7a565b909155505050505050565b6000600161150d84610746565b6115179190611d67565b60008381526008602052604090205490915080821461156a576001600160a01b03841660009081526007602090815260408083208584528252808320548484528184208190558352600890915290208190555b5060009182526008602090815260408084208490556001600160a01b039094168352600781528383209183525290812055565b6009546000906115af90600190611d67565b6000838152600a6020526040812054600980549394509092849081106115d7576115d7611b0d565b9060005260206000200154905080600983815481106115f8576115f8611b0d565b6000918252602080832090910192909255828152600a9091526040808220849055858252812055600980548061163057611630611d8d565b6001900381819060005260206000200160009055905550505050565b600061165783610746565b6001600160a01b039093166000908152600760209081526040808320868452825280832085905593825260089052919091209190915550565b60008072184f03e93ff9f4daa797ed6e38ed64bf6a1f0160401b83106116cf5772184f03e93ff9f4daa797ed6e38ed64bf6a1f0160401b830492506040015b6d04ee2d6d415b85acef810000000083106116fb576d04ee2d6d415b85acef8100000000830492506020015b662386f26fc10000831061171957662386f26fc10000830492506010015b6305f5e1008310611731576305f5e100830492506008015b612710831061174557612710830492506004015b60648310611757576064830492506002015b600a831061036a5760010192915050565b6001600160e01b0319811681146108c357600080fd5b60006020828403121561179057600080fd5b813561110581611768565b60005b838110156117b657818101518382015260200161179e565b50506000910152565b600081518084526117d781602086016020860161179b565b601f01601f19169290920160200192915050565b60208152600061110560208301846117bf565b60006020828403121561181057600080fd5b5035919050565b80356001600160a01b038116811461182e57600080fd5b919050565b6000806040838503121561184657600080fd5b61184f83611817565b946020939093013593505050565b634e487b7160e01b600052604160045260246000fd5b600067ffffffffffffffff8084111561188e5761188e61185d565b604051601f8501601f19908116603f011681019082821181831017156118b6576118b661185d565b816040528093508581528686860111156118cf57600080fd5b858560208301376000602087830101525050509392505050565b600080604083850312156118fc57600080fd5b82359150602083013567ffffffffffffffff81111561191a57600080fd5b8301601f8101851361192b57600080fd5b61193a85823560208401611873565b9150509250929050565b60008060006060848603121561195957600080fd5b61196284611817565b925061197060208501611817565b9150604084013590509250925092565b60006020828403121561199257600080fd5b61110582611817565b600080604083850312156119ae57600080fd5b6119b783611817565b9150602083013580151581146119cc57600080fd5b809150509250929050565b600080600080608085870312156119ed57600080fd5b6119f685611817565b9350611a0460208601611817565b925060408501359150606085013567ffffffffffffffff811115611a2757600080fd5b8501601f81018713611a3857600080fd5b611a4787823560208401611873565b91505092959194509250565b60008060408385031215611a6657600080fd5b611a6f83611817565b9150611a7d60208401611817565b90509250929050565b600181811c90821680611a9a57607f821691505b602082108103611aba57634e487b7160e01b600052602260045260246000fd5b50919050565b6020808252602d908201527f4552433732313a2063616c6c6572206973206e6f7420746f6b656e206f776e6560408201526c1c881bdc88185c1c1c9bdd9959609a1b606082015260800190565b634e487b7160e01b600052603260045260246000fd5b601f82111561053e57600081815260208120601f850160051c81016020861015611b4a5750805b601f850160051c820191505b81811015611b6957828155600101611b56565b505050505050565b815167ffffffffffffffff811115611b8b57611b8b61185d565b611b9f81611b998454611a86565b84611b23565b602080601f831160018114611bd45760008415611bbc5750858301515b600019600386901b1c1916600185901b178555611b69565b600085815260208120601f198616915b82811015611c0357888601518255948401946001909101908401611be4565b5085821015611c215787850151600019600388901b60f8161c191681555b5050505050600190811b01905550565b60208082526025908201527f4552433732313a207472616e736665722066726f6d20696e636f72726563742060408201526437bbb732b960d91b606082015260800190565b60208082526032908201527f4552433732313a207472616e7366657220746f206e6f6e20455243373231526560408201527131b2b4bb32b91034b6b83632b6b2b73a32b960711b606082015260800190565b60008351611cda81846020880161179b565b835190830190611cee81836020880161179b565b01949350505050565b6001600160a01b0385811682528416602082015260408101839052608060608201819052600090611d2a908301846117bf565b9695505050505050565b600060208284031215611d4657600080fd5b815161110581611768565b634e487b7160e01b600052601160045260246000fd5b8181038181111561036a5761036a611d51565b8082018082111561036a5761036a611d51565b634e487b7160e01b600052603160045260246000fdfea2646970667358221220b81b70bafd58572dd01517b358d8c5154485b3c9c77d2043b33698fe54622e4064736f6c63430008110033",
  "linkReferences": {},
  "deployedLinkReferences": {}
}